:10000000FC7F0020110F0000510400004D0400008F
:1000100000000000000000000000000000000000E0
:100020000000000000000000000000004904000083
:10003000000000000000000045040000AD030000C7
:1000400010B5064C2378002B07D1054B002B02D0AE
:10005000044800E000BF0123237010BD5C000020B5
:100060000000000054160000044B10B5002B03D014
:100070000349044800E000BF10BDC0460000000076
:100080006000002054160000024B187E4007C00F8D
:100090007047C0460008004210B5FFF7F5FF002882
:1000A000FBD0074B1A00197E4907FCD5598BC907AD
:1000B00003D4598B890700D45B8B108DC0B210BD5F
:1000C00000080042F8B5002506000F002C00FFF7DD
:1000D000E3FF114A1378002B1CD1FF21230A0140B2
:1000E0004B4021020D4C5B001C5B53884C40A4B27A
:1000F000002B02D11279002A06D030700136802FF1
:1001000002D1054A013B53800135ADB2AF42DED189
:100110002000F8BD0124FBE7780000201014000047
:1001200010B50400FFF7B8FF2070012010BD044B8C
:10013000C0B21A7ED207FCD580B218850120704764
:10014000000800420023F0B52E4D85B007002B704B
:10015000994211D1013364242B714320FFF7E7FF4B
:10016000294EFFF791FF00280AD1002E06D1013C4D
:10017000002CF2D120000DE06980ECE7013EF0E7B1
:10018000002EF4D00126FFF787FF2B78002B03D039
:100190000020287005B0F0BDFF231840012805D0CD
:1001A00004282CD0002301202B71F3E7022103A89F
:1001B000FFF788FF80213800FFF784FF0190FFF7E9
:1001C0006BFF000284B2FFF767FF019B2418A4B203
:1001D000A34209D102AB1B79B34205D1F34302AA72
:1001E0005279DBB29A4203D01820FFF7A0FFD9E77B
:1001F00006200136FFF79BFFF6B28037C3E70620E3
:10020000F3E7C0467800002000350C000023F0B56D
:10021000394D85B003900C002B70994253D10133B6
:100220002B717F231C4201D080349C43FFF734FFA5
:100230002B78002B03D000232B70FFF72DFFC0B2CB
:10024000432803D071283CD01528EFD10123019316
:100250000120FFF76CFF0198FFF769FF019B8025E4
:10026000D8430027C0B2FFF762FF039B0293224AE4
:100270005388002B02D11679002E06D00299013B3B
:1002800053800B000E78013302933000FFF74FFFCD
:100290003B0A5E40194B7600F65A3F027E4036B26A
:1002A000013DB7B2002DE2D1380AFFF740FFF0B2AE
:1002B000FFF73DFFFFF7F0FE0F4E3378002B04D021
:1002C0003570002016E06980AAE7FF231840062851
:1002D00007D1019B803C0133DBB20193039B803348
:1002E0000393002CB4D10420FFF721FFFFF7D4FEC5
:1002F0000120347105B0F0BD78000020101400001A
:1003000070B504000D004618B44201D1280070BD3C
:100310002078FFF70CFF0134F6E7030010B5080062
:10032000110098478022034B12055A616422024B48
:10033000DA8010BD0044004178000020F0B5194B70
:100340000A00197A85B0DC68002929D0042A1FD157
:1003500000680F263027520004AB9B180B3B9D1AF8
:1003600001003140092919D839431970013B0009AE
:100370009D42F5D10A200C4B01A90B808B18987077
:100380000330D8700432E068FFF7C7FF05B0F0BD56
:10039000022A01D10088DCE70078DAE73731E4E7A8
:1003A0000100F0E77800002030780000214A224B5D
:1003B000117C002908D11978587809188020C9B211
:1003C00059701E498002C861117C0131C9B2117493
:1003D0005978F02902D85978092908D8197849425A
:1003E00049B21970197858780918C9B25970117C36
:1003F0005B78994203D18021104B8902D961D3885F
:10040000002B09D0D388013B9BB2D380002B03D1B2
:1004100080210A4B09059961538A002B08D0538A21
:10042000013B9BB25382002B02D10822044B1A607D
:100430007047C046780000200000002000440041C2
:100440009844004102BEFEE705BEFEE70DBEFEE792
:100450000EBEFEE710230249CA681A42FCD070475C
:1004600000080040024A53785BB2002BFBDB704768
:10047000000C0040074AFF3053699B0B9B035361FC
:10048000022303728279823B13438371037A9B07B1
:10049000FCD570472803002010220823F0B58FB048
:1004A00000AFBA18D1180B00B74A31CA31C331CAEC
:1004B00031C311CA11C3B54AB54C93685B035B0FD6
:1004C0009B005B5863619168FA6089B24B43A361FA
:1004D00000237A21E361631CD977E36840211B691B
:1004E000AC489847002804D00822AB4B1A6064231C
:1004F0006382A84B6066A3660023E366E36E626EC8
:100500009342EAD2A36E1B78FF2B54D0232B00D04A
:10051000BDE1237A002B05D0E36802229F49D86809
:10052000FFF7FBFE601CC37F532B4DD1636EE56E5E
:10053000AB4219D9A16E226F01354E1CA666E56645
:100540005B1B93423ED26367636F31001A00E06920
:10055000BB6000F0FFFEBB683A7AED18F618230086
:100560007833E566A6661A70E36E216F013BE36699
:10057000A36E013BA366230078331B788B420BD21A
:10058000C91AE368E0699B699847002804D00822EB
:10059000814B1A6064236382C0467A22631CDA7737
:1005A00000232367237A002B05D0E36801227C49CE
:1005B000D868FFF7B2FEE36E0133E366A36E013342
:1005C000A3669BE76267BFE7522B06D1E368226F01
:1005D000E1695869FFF7A1FEDFE74F2B03D1236FD5
:1005E000E2691370D9E7482B03D1236FE2691380C6
:1005F000D3E7572B03D1E369226F1A60CDE76F2B46
:1006000004D10121E069FFF799FEC6E7682B05D107
:10061000E3696F301B8802212367F4E7772B05D14C
:10062000E3696F301B6804212367ECE7472B16D181
:10063000236F72B6EFF30882E2671A6882F30888C4
:100640005B681847E36F83F3088862B6554B1B78E5
:10065000002BA2D0E36806201B6898479DE7542B27
:1006600008D1533B23720222E3684C49D868FFF754
:1006700054FE92E74E2B0BD1237A002B05D1E36871
:1006800002224649D868FFF748FE0023237284E718
:10069000562B55D1E36801224349D868FFF73DFE48
:1006A000E368394903222031D868FFF736FE3F4D11
:1006B000E36801222900D868FFF72FFEE36832497A
:1006C0000D222431D868FFF728FEE36801222900B3
:1006D000D868FFF722FE002301201A00844634491F
:1006E000E36634488E5C8018002E23D1002B00D0A6
:1006F000E266E368A066E26ED868FFF70EFEE36884
:1007000001222900D868FFF708FE002301201A0003
:1007100084462949E3664E1C8D5CB018002D0CD12F
:10072000002B00D0E266E368A066E26ED868FFF7AF
:10073000F4FD98E701326346D3E701326346EBE705
:10074000582B15D16269236FA1691C4892008B4216
:1007500003D3E36803221A4988E7FE685D08F56160
:10076000FD682880FD682D7DED07FBD59B18EEE721
:10077000592B58D1236FE1690A4A002B24D15160CB
:10078000E36803220F4971E78C1300000040004129
:1007900078000020990000209444004134160000A5
:1007A00037160000F8000020101600001216000096
:1007B00014160000151600002016000002A5FFFF09
:1007C000291600002D16000080205668FA689B0844
:1007D00052688243F8684260626992087A603E4AD1
:1007E0009446002BCCD06046FA681080FA68127DDF
:1007F000D207FBD50D000022BE6078682900BE68D4
:10080000824201D09A4208D1F868344D0580F868D8
:10081000007DC007FBD59B1AE3E7B868013202C828
:10082000B86002C5E9E75A2B00D0B6E60025E369B7
:10083000226F2B48991899421FD1E3680122D8688A
:100840002849FFF76AFD07230F222A40D0B2010092
:100850002D093031092A00DD07311022BA18D15490
:10086000013BF1D21021E36808227918D868FFF71C
:1008700054FDE36803221C49F8E61E782A0A7240F8
:100880005200125A2D025540ADB20133D3E71A007F
:10089000303AD1B2092904D8236F1B0113432367CF
:1008A00089E61A00413A052A03D8226F373B120124
:1008B000F4E71A00613A052A03D8226F573B120168
:1008C000ECE700222C2B03D1236FE361226772E651
:1008D000611CCB77FAE7C04644A5FFFF04A5FFFFE4
:1008E000101400003116000033160000F8B51A4F3E
:1008F00006003B7A08001400002B12D1174B184A4F
:1009000018491A645A6C920B92035A645A6C0A4042
:100910005A64A22240235200B15C0B43B35401231A
:100920003B724825FF35735DDB07DB0F12D00B4AA6
:10093000536C9B049B0C9C4202D9546CA404A40CE1
:100940002200074900F006FD0123735500233B7286
:100950002000F8BD1C00FBE7F80000202803002061
:10096000E8020020FF3F00F013B56B46DC1D044B8E
:1009700001222100D868FFF7B9FF207816BDC046D4
:10098000F8000020F7B5009001201C4D1C005B0111
:1009900016000193EA18536910325B005B0F0333B2
:1009A0009840B04221D8802350681B06034353600F
:1009B0006301ED1829616B69B1049B0B890C9B03E2
:1009C0000B436B616B690E4908340B406B61009BF4
:1009D00064011C190223E3716279823B1343637142
:1009E000E3799B07FCD53000FEBD064BA701FF183D
:1009F0003200380000F0AEFC3900D9E728030020AF
:100A0000FF3F00F02802002010B50C000A00010092
:100A100003480123C068FFF7B5FF200010BDC046A2
:100A2000F8000020012307B5019004481A0001A92D
:100A3000C068FFF7A7FF01200EBDC046F8000020E8
:100A400070B50500C0B0080016000C0000F08BFC6B
:100A50006B464000023018706A46032376085370D4
:100A6000023B5A1EA15C5A00002901D09E4206DCBE
:100A7000002369462800FFF785FF40B070BD684637
:100A800001338152EDE7F7B5056808222900AB8BE9
:100A900006001340FF31002B27D080234020C024C4
:100AA000AA830932AB724A7088714B71B24BB34D55
:100AB0005A68A4052A4022435A605A692A401443BE
:100AC000AF4A5C611A60AF4AAF4C1A615A68144071
:100AD0008022920222435A605A68920B92035A6013
:100AE0000023487133713079FEBD10200A7A02422A
:100AF000F9D0A34AA54C17780872277657786776FD
:100B000097786783678BBC466046D7783F02074378
:100B100067831779A7835779A08B3F020743A78381
:100B20009779E783D279E78B12023A434027E28331
:100B30004F71627E207E120202439548824200D1AC
:100B4000F1E026DC8020400082421CD00BDC812AB0
:100B500004D0822A00D1BEE0802A14D1210023844F
:100B6000203102224EE081235B009A4200D125E130
:100B700000DAF6E0FF33FF339A4200D1CEE0854B36
:100B80009A4200D1EDE02023FF35AA791343AB71DF
:100B9000A9E7902109018A426CD017DCD021C90055
:100BA0008A4222D0882109018A4200D190E0A02304
:100BB000DB009A42E7D12800FFF75CFC8023628BC0
:100BC0005B4213433268DBB293728CE7724B9A42FA
:100BD00000D1C6E0D7DD714B9A4200D149E1704B9C
:100BE0009A42D0D1638B7371BBE0638B1B0A012BDC
:100BF0000CD11222E38B934201D8E28B92B20023F4
:100C0000684934312800FFF7BDFE6CE7638B1B0A8F
:100C1000022B09D14322E38B934201D8E28B92B29B
:100C2000614900230431EDE7638B1B0A032BAAD132
:100C3000638BDBB2012B16D0002B05D0022BA2D187
:100C4000E28B5A49D2B211E056490422463101A83A
:100C500000F080FB0422E38B934201D8E28B92B236
:100C6000002301A9CEE7E28B5149D2B22800FFF759
:100C7000E7FE38E7638B28003371FFF7FBFBA02307
:100C80000322C0215B00EA543B4B3C485A6C890567
:100C900002400A435A644622FF32AF54454A302488
:100CA0001A6490225200AC545A6B024011439222B3
:100CB000596380215200A9543F4A1A63B02252005E
:100CC000AF545A6F10405867B2235B00E9540AE7EB
:100CD000311D012296E750220F202384A38B13405D
:100CE000E21CD377A38B0340A383A38B032B15D8DC
:100CF000D37F002B0BD0A38B08335B01EB189B79C0
:100D00009B062100DB0F23842031002329E7A38BDE
:100D100008335B01EB189B79DB06F2E720238A7925
:100D200013438B71DFE680220F21A38B1340E21C5B
:100D3000D377A38B0B40A383638B002B00D022E7D8
:100D4000A38B002B00D11EE7A38B032B00D91AE73E
:100D5000D37F002B09D02022A38B08335B01EB1833
:100D60005A712800FFF786FBBDE6A38B10220833DB
:100D70005B01EB18F4E7C04628030020FFFFFF8F5C
:100D8000A802002028020020FF3F00F0F800002009
:100D9000020300000103000021200000A121000047
:100DA000212200008C1300000000002045160000E6
:100DB00039160000E8020020680200208022A38B80
:100DC0001340E21CD3770F22A38B1340A383638BC2
:100DD000002B00D0D7E6A38B002B00D1D3E6A38B4A
:100DE000032B00D9CFE6E31CDB7F002B20D0A38BA5
:100DF00008335B01EB189B799B06B2D5A38B1132AC
:100E000008335B01EB181A71A38B08335B01EB18F5
:100E1000DB795B06A5D5A38B203208335B01EB1889
:100E2000DA71A38B3E3A08335B01EB181A7198E72D
:100E3000A38B08335B01EB189B79DB0691D510225D
:100E4000A38B08335B01EB181A71A38B08335B018A
:100E5000EB18DB799B0600D483E7A38B9218083349
:100E60005B01EB18DA71A38B1F3A08335B01EB18B7
:100E7000DCE70822E38B934201D8E28B92B202496D
:100E800000234831BEE6C04600000020F8B50B4FF5
:100E9000060038000C300D00FFF7F5FD2C0000288F
:100EA00008D1050008E022003100F868FFF71EFDB8
:100EB000241A3618002CF6D12800F8BDF8000020BE
:100EC00070B5084C050020000C300E00FFF7DBFD6C
:100ED00003000020834204D032002900E068FFF7BD
:100EE00005FD70BDF800002010B5084C20000C3046
:100EF000FFF7C9FD03000020834205D04823E268C4
:100F0000FF33D05CC007C00F10BDC046F800002002
:100F10000D4A0E4870B5824206D10D4A0D4B002194
:100F200093420DD100F01AF80B4C00239442F4D0F8
:100F3000D1188842F1D9E55804330D60F8E702C3AF
:100F40009342FCD3EEE7C046000000205C00002086
:100F5000A80300205C00002058160000F0B5D04A1D
:100F600085B0136800AF01331DD0CE4BCE49D0B24F
:100F70005962002817D1CD4BCD491B78DB07DB0F19
:100F80000BD00860136883F30888FF23110099438E
:100F9000C84B99605368184705E00C68C6488442FE
:100FA00000D063E10B601E210226C44AC44C536882
:100FB000C44D8B4333435360A660FFF753FAC24BD3
:100FC0006360FFF74FFAAE84FFF744FABF4A136835
:100FD000FA609B0E3F2B00D1203BBD4A9B0213437E
:100FE000BC4AEA62AB620023AB841E00FFF732FA10
:100FF000B94BAB84FFF72EFA0222AB8C1343AB84C0
:10100000FFF728FA3F22638893433D3A1343802237
:1010100063806388D20113436380A660FFF722FADE
:10102000AE4B6360FFF71EFAC021AD4BAD4AA1483D
:101030005A609446026A09061202120A0A430262C0
:1010400007229E601A6062B60121A74D0F362A78EA
:101050000A432A70A54A1578B543157015780D3ED8
:101060002E43A34D16702E78314329700F25117829
:101070000D402021157015782943117004229D49D7
:101080000D6A2A431D0063460A629B4A6280B8606B
:101090003B6063785BB2002BFBDB984A1300D0699E
:1010A0008007FCD402261068B0431060DA69D207CA
:1010B000FCD40122186802431A601A68D207FCD4D3
:1010C000DA69D207FCD4DA699207F9D48C4A1A603B
:1010D000DA695207FCD4C02292025A60894A9A8186
:1010E000DA699207D20FFBD102201E6830436D4EA1
:1010F0001860330028331A70330029331A70330014
:101100002A331A7033002B331A7033002C331A70C1
:101110007D4B1A702023CA69134301229446CB6188
:101120007A490B7813430B70794B0E32187861466D
:101130009043187018780200062010431870754804
:101140000278114301700F211A780A401A70602248
:1011500019780A431A70704B638063785BB2002B76
:10116000FBDB01236D4C227813432370A378DB074C
:10117000FCD41F22FB681B687B605B0B134093420F
:1011800000D10523218D664813409B0101400B438C
:101190002385FB681B687B609B0C13401F2B00D1D1
:1011A000023B1F21228D0B408A43134307222385D4
:1011B000FB681B68FA60DB0D1340934200D10323E8
:1011C000F968228D0B4057491B030A4013437F22C5
:1011D0002385237854481340237004232278002168
:1011E00013430C2223706062238993432381238954
:1011F0000B3A934323817F3200F0A4F800224B4B3B
:10120000F460736102233282217849480B438021C4
:101210002370484B890299600821016046480160AB
:101220008021090599609961C0213B6809066B60BE
:10123000BB681B6A1B021B0A0B43B9680B62FB6885
:10124000AA602B6001231D0034002D343000736927
:101250000C309847002800D025702378002B0CD044
:10126000364B294A4C33D360FFF716F9344B0860EC
:10127000013B002BFCD10B6084E62378002BE5D1E9
:10128000FEF702FF0028DFD0FEF706FF2328DBD1A0
:101290002A4B1D4A6833D36001233370E4E7C0460C
:1012A00000200000F8000020042000003804004066
:1012B000FC7F002000ED00E0358173070040004115
:1012C000000C00400008004006000100246080007F
:1012D000FF01000080BB0A1C24050000000703007A
:1012E00010E000E0E70300004A44004135440041BB
:1012F0004B4400410004004014400000000800423C
:10130000040031402AF6FFFF7800002058440041D5
:101310003C44004159440041064000000050004157
:101320003FF8FFFFFF8FFFFF28030020870A000020
:101330008844004100440041984400418C1300005F
:1013400048E8010003001218934200D17047197059
:101350000133F9E7002310B59A4200D110BDCC5CEF
:10136000C4540133F8E70023C25C0133002AFBD1E7
:10137000581E7047F8B5C046F8BC08BC9E4670477A
:10138000F8B5C046F8BC08BC9E467047080000008F
:10139000100000002000000040000000800000005D
:1013A000000100000002000000040000322E3000A6
:1013B0005B41726475696E6F3A58595A5D0000005E
:1013C000120100020200004041234D000002010210
:1013D0000001040309040000250A00006909000057
:1013E000E90E0000090A0000C10E0000090A000011
:1013F0008D0E00002F010000990000008900000000
:1014000001030000210100000D0200004501000061
:1014100000002110422063308440A550C660E77070
:10142000088129914AA16BB18CC1ADD1CEE1EFF118
:101430003112100273325222B5529442F772D662C0
:10144000399318837BB35AA3BDD39CC3FFF3DEE368
:101450006224433420040114E664C774A444855410
:101460006AA54BB528850995EEE5CFF5ACC58DD5B8
:101470005336722611163006D776F6669556B44660
:101480005BB77AA719973887DFF7FEE79DD7BCC708
:10149000C448E5588668A7784008611802282338B0
:1014A000CCC9EDD98EE9AFF9488969990AA92BB958
:1014B000F55AD44AB77A966A711A500A333A122A00
:1014C000FDDBDCCBBFFB9EEB799B588B3BBB1AABA8
:1014D000A66C877CE44CC55C222C033C600C411C50
:1014E000AEED8FFDECCDCDDD2AAD0BBD688D499DF8
:1014F000977EB66ED55EF44E133E322E511E700EA0
:101500009FFFBEEFDDDFFCCF1BBF3AAF599F788F47
:101510008891A981CAB1EBA10CD12DC14EF16FE127
:101520008010A100C230E32004502540467067605F
:10153000B9839893FBA3DAB33DC31CD37FE35EF377
:10154000B1029012F322D2323542145277625672AF
:10155000EAB5CBA5A89589856EF54FE52CD50DC5C7
:10156000E234C324A01481046674476424540544FF
:10157000DBA7FAB79987B8975FE77EF71DC73CD717
:10158000D326F2369106B01657667676154634564F
:101590004CD96DC90EF92FE9C899E9898AB9ABA967
:1015A0004458654806782768C018E1088238A3289F
:1015B0007DCB5CDB3FEB1EFBF98BD89BBBAB9ABBB7
:1015C000754A545A376A167AF10AD01AB32A923AEF
:1015D0002EFD0FED6CDD4DCDAABD8BADE89DC98D07
:1015E000267C076C645C454CA23C832CE01CC10C3F
:1015F0001FEF3EFF5DCF7CDF9BAFBABFD98FF89F57
:10160000176E367E554E745E932EB23ED10EF01E8E
:10161000760020004A756E202035203230323000AE
:1016200031383A30373A353800580A0D00590A0D2A
:10163000005A00230A0D003E0041726475696E6F06
:10164000204C4C430041726475696E6F205A65727C
:081650006F0000000000000023
:10165800011400000902430002010080320904005D
:101668000001020200000524001001042402000504
:10167800240600010524010001070583030800FF73
:1016880009040100020A0000000705810240000069
:10169800070502024000000000C201000000080027
:0C16A8000100000069000000410000008B
:0400000300000F11D9
:00000001FF
